{
  "contractName": "EthPriceOracle",
  "abi": [
    {
      "anonymous": false,
      "inputs": [
        {
          "indexed": false,
          "internalType": "address",
          "name": "callerAddress",
          "type": "address"
        },
        {
          "indexed": false,
          "internalType": "uint256",
          "name": "id",
          "type": "uint256"
        }
      ],
      "name": "GetLatestEthPriceEvent",
      "type": "event"
    },
    {
      "anonymous": false,
      "inputs": [
        {
          "indexed": true,
          "internalType": "address",
          "name": "previousOwner",
          "type": "address"
        },
        {
          "indexed": true,
          "internalType": "address",
          "name": "newOwner",
          "type": "address"
        }
      ],
      "name": "OwnershipTransferred",
      "type": "event"
    },
    {
      "anonymous": false,
      "inputs": [
        {
          "indexed": false,
          "internalType": "uint256",
          "name": "ethPrice",
          "type": "uint256"
        },
        {
          "indexed": false,
          "internalType": "address",
          "name": "callerAddress",
          "type": "address"
        }
      ],
      "name": "SetLatestEthPriceEvent",
      "type": "event"
    },
    {
      "inputs": [],
      "name": "owner",
      "outputs": [
        {
          "internalType": "address",
          "name": "",
          "type": "address"
        }
      ],
      "stateMutability": "view",
      "type": "function"
    },
    {
      "inputs": [],
      "name": "renounceOwnership",
      "outputs": [],
      "stateMutability": "nonpayable",
      "type": "function"
    },
    {
      "inputs": [
        {
          "internalType": "address",
          "name": "newOwner",
          "type": "address"
        }
      ],
      "name": "transferOwnership",
      "outputs": [],
      "stateMutability": "nonpayable",
      "type": "function"
    },
    {
      "inputs": [],
      "name": "getLatestEthPrice",
      "outputs": [
        {
          "internalType": "uint256",
          "name": "",
          "type": "uint256"
        }
      ],
      "stateMutability": "nonpayable",
      "type": "function"
    },
    {
      "inputs": [
        {
          "internalType": "uint256",
          "name": "_ethPrice",
          "type": "uint256"
        },
        {
          "internalType": "address",
          "name": "_callerAddress",
          "type": "address"
        },
        {
          "internalType": "uint256",
          "name": "_id",
          "type": "uint256"
        }
      ],
      "name": "setLatestEthPrice",
      "outputs": [],
      "stateMutability": "nonpayable",
      "type": "function"
    }
  ],
  "bytecode": "0x608060405260006001556103e860025534801561001b57600080fd5b5061003861002d61003d60201b60201c565b61004560201b60201c565b610109565b600033905090565b60008060009054906101000a900473ffffffffffffffffffffffffffffffffffffffff169050816000806101000a81548173ffffffffffffffffffffffffffffffffffffffff021916908373ffffffffffffffffffffffffffffffffffffffff1602179055508173ffffffffffffffffffffffffffffffffffffffff168173ffffffffffffffffffffffffffffffffffffffff167f8be0079c531659141344cd1fd0a4f28419497f9722a3daafe3b4186f6b6457e060405160405180910390a35050565b610b03806101186000396000f3fe608060405234801561001057600080fd5b50600436106100575760003560e01c806330c0b9ec1461005c578063715018a61461007a5780638da5cb5b14610084578063cf642f1f146100a2578063f2fde38b146100be575b600080fd5b6100646100da565b6040516100719190610806565b60405180910390f35b6100826101a1565b005b61008c610229565b6040516100999190610762565b60405180910390f35b6100bc60048036038101906100b7919061061d565b610252565b005b6100d860048036038101906100d391906105f0565b610402565b005b6000600160008154809291906100ef906108c0565b91905055506000600254423360015460405160200161011093929190610725565b6040516020818303038152906040528051906020012060001c6101339190610937565b905060016003600083815260200190815260200160002060006101000a81548160ff0219169083151502179055507f3d50a0c24e97813f35595d2f1f37dbf421d5e97f37abd4e222853e9b9c82c8d5338260405161019292919061077d565b60405180910390a18091505090565b6101a96104fa565b73ffffffffffffffffffffffffffffffffffffffff166101c7610229565b73ffffffffffffffffffffffffffffffffffffffff161461021d576040517f08c379a0000000000000000000000000000000000000000000000000000000008152600401610214906107c6565b60405180910390fd5b6102276000610502565b565b60008060009054906101000a900473ffffffffffffffffffffffffffffffffffffffff16905090565b61025a6104fa565b73ffffffffffffffffffffffffffffffffffffffff16610278610229565b73ffffffffffffffffffffffffffffffffffffffff16146102ce576040517f08c379a00000000000000000000000000000000000000000000000000000000081526004016102c5906107c6565b60405180910390fd5b6003600082815260200190815260200160002060009054906101000a900460ff1661032e576040517f08c379a0000000000000000000000000000000000000000000000000000000008152600401610325906107e6565b60405180910390fd5b6003600082815260200190815260200160002060006101000a81549060ff021916905560008290508073ffffffffffffffffffffffffffffffffffffffff1663b5d73ba485846040518363ffffffff1660e01b815260040161039192919061084a565b600060405180830381600087803b1580156103ab57600080fd5b505af11580156103bf573d6000803e3d6000fd5b505050507f91b860381268a473101de3379abbb70abf7ea6c9d1735cf58b9816479ff3b72784846040516103f4929190610821565b60405180910390a150505050565b61040a6104fa565b73ffffffffffffffffffffffffffffffffffffffff16610428610229565b73ffffffffffffffffffffffffffffffffffffffff161461047e576040517f08c379a0000000000000000000000000000000000000000000000000000000008152600401610475906107c6565b60405180910390fd5b600073ffffffffffffffffffffffffffffffffffffffff168173ffffffffffffffffffffffffffffffffffffffff1614156104ee576040517f08c379a00000000000000000000000000000000000000000000000000000000081526004016104e5906107a6565b60405180910390fd5b6104f781610502565b50565b600033905090565b60008060009054906101000a900473ffffffffffffffffffffffffffffffffffffffff169050816000806101000a81548173ffffffffffffffffffffffffffffffffffffffff021916908373ffffffffffffffffffffffffffffffffffffffff1602179055508173ffffffffffffffffffffffffffffffffffffffff168173ffffffffffffffffffffffffffffffffffffffff167f8be0079c531659141344cd1fd0a4f28419497f9722a3daafe3b4186f6b6457e060405160405180910390a35050565b6000813590506105d581610a9f565b92915050565b6000813590506105ea81610ab6565b92915050565b600060208284031215610606576106056109c6565b5b6000610614848285016105c6565b91505092915050565b600080600060608486031215610636576106356109c6565b5b6000610644868287016105db565b9350506020610655868287016105c6565b9250506040610666868287016105db565b9150509250925092565b61067981610884565b82525050565b61069061068b82610884565b610909565b82525050565b60006106a3602683610873565b91506106ae826109d8565b604082019050919050565b60006106c6602083610873565b91506106d182610a27565b602082019050919050565b60006106e9602783610873565b91506106f482610a50565b604082019050919050565b610708816108b6565b82525050565b61071f61071a826108b6565b61092d565b82525050565b6000610731828661070e565b602082019150610741828561067f565b601482019150610751828461070e565b602082019150819050949350505050565b60006020820190506107776000830184610670565b92915050565b60006040820190506107926000830185610670565b61079f60208301846106ff565b9392505050565b600060208201905081810360008301526107bf81610696565b9050919050565b600060208201905081810360008301526107df816106b9565b9050919050565b600060208201905081810360008301526107ff816106dc565b9050919050565b600060208201905061081b60008301846106ff565b92915050565b600060408201905061083660008301856106ff565b6108436020830184610670565b9392505050565b600060408201905061085f60008301856106ff565b61086c60208301846106ff565b9392505050565b600082825260208201905092915050565b600061088f82610896565b9050919050565b600073ffffffffffffffffffffffffffffffffffffffff82169050919050565b6000819050919050565b60006108cb826108b6565b91507fffffffffffffffffffffffffffffffffffffffffffffffffffffffffffffffff8214156108fe576108fd610968565b5b600182019050919050565b60006109148261091b565b9050919050565b6000610926826109cb565b9050919050565b6000819050919050565b6000610942826108b6565b915061094d836108b6565b92508261095d5761095c610997565b5b828206905092915050565b7f4e487b7100000000000000000000000000000000000000000000000000000000600052601160045260246000fd5b7f4e487b7100000000000000000000000000000000000000000000000000000000600052601260045260246000fd5b600080fd5b60008160601b9050919050565b7f4f776e61626c653a206e6577206f776e657220697320746865207a65726f206160008201527f6464726573730000000000000000000000000000000000000000000000000000602082015250565b7f4f776e61626c653a2063616c6c6572206973206e6f7420746865206f776e6572600082015250565b7f546869732072657175657374206973206e6f7420696e206d792070656e64696e60008201527f67206c6973742e00000000000000000000000000000000000000000000000000602082015250565b610aa881610884565b8114610ab357600080fd5b50565b610abf816108b6565b8114610aca57600080fd5b5056fea2646970667358221220e438d9de7f71104ad8d13c7dc0d0a419c33509258bcf79274c6ebe24cc326a3d64736f6c63430008070033",
  "immutableReferences": {},
  "source": "// SPDX-License-Identifier: MIT\r\npragma solidity 0.8.7;\r\nimport '../../node_modules/@openzeppelin/contracts/access/Ownable.sol';\r\nimport './CallerContractInterface.sol';\r\n\r\ncontract EthPriceOracle is Ownable {\r\n\tuint256 private randNonce = 0;\r\n\tuint256 private modulus = 1000;\r\n\tmapping(uint256 => bool) pendingRequests;\r\n\tevent GetLatestEthPriceEvent(address callerAddress, uint256 id);\r\n\tevent SetLatestEthPriceEvent(uint256 ethPrice, address callerAddress);\r\n\r\n\tfunction getLatestEthPrice() public returns (uint256) {\r\n\t\trandNonce++;\r\n\t\tuint256 id = uint256(keccak256(abi.encodePacked(block.timestamp, msg.sender, randNonce))) % modulus;\r\n\t\tpendingRequests[id] = true;\r\n\t\temit GetLatestEthPriceEvent(msg.sender, id);\r\n\t\treturn id;\r\n\t}\r\n\r\n\tfunction setLatestEthPrice(\r\n\t\tuint256 _ethPrice,\r\n\t\taddress _callerAddress,\r\n\t\tuint256 _id\r\n\t) public onlyOwner {\r\n\t\trequire(pendingRequests[_id], 'This request is not in my pending list.');\r\n\t\tdelete pendingRequests[_id];\r\n\t\tCallerContractInterface callerContractInstance;\r\n\t\tcallerContractInstance = CallerContractInterface(_callerAddress);\r\n\t\tcallerContractInstance.callback(_ethPrice, _id);\r\n\t\temit SetLatestEthPriceEvent(_ethPrice, _callerAddress);\r\n\t}\r\n}\r\n",
  "sourcePath": "D:/_XZONE_/___LEARNING___/99_CURSOS/14 Curso de BLOCKCHAIN CRIPTOZOMBIES/01 criptozombies/02_EthPriceOracle/oracle/contracts/EthPriceOracle.sol",
  "compiler": {
    "name": "solc",
    "version": "0.8.7+commit.e28d00a7.Emscripten.clang"
  },
  "schemaVersion": "3.4.1",
  "updatedAt": "2021-09-26T16:37:51.240Z",
  "devdoc": {
    "kind": "dev",
    "methods": {
      "owner()": {
        "details": "Returns the address of the current owner."
      },
      "renounceOwnership()": {
        "details": "Leaves the contract without owner. It will not be possible to call `onlyOwner` functions anymore. Can only be called by the current owner. NOTE: Renouncing ownership will leave the contract without an owner, thereby removing any functionality that is only available to the owner."
      },
      "transferOwnership(address)": {
        "details": "Transfers ownership of the contract to a new account (`newOwner`). Can only be called by the current owner."
      }
    },
    "version": 1
  },
  "userdoc": {
    "kind": "user",
    "methods": {},
    "version": 1
  }
}